:100000000C94FA000C9417010C9417010C9417012E
:100010000C9417010C9417010C9417010C94170100
:100020000C9417010C9417010C9417010C941701F0
:100030000C9417010C9417010C9417010C941701E0
:100040000C9417010C9417010C9417010C941701D0
:100050000C9417010C9417010C9417010C941701C0
:100060000C9417010C9417016E616E00696E6600A6
:100070006364696E6F70737578585B656667454633
:100080004700616E006E66696E69747900CDCCCCF4
:100090003D0AD7233C17B7D13877CC2B329595E65C
:1000A000241FB14F0A000020410000C84200401C3C
:1000B0004620BCBE4CCA1B0E5AAEC59D74252E32BE
:1000C00066206465677265657320460D0A004620E8
:1000D00020202020200054656D7065726174757257
:1000E000653A20252E326600206F6620313032348A
:1000F000202020004144433A200000407A10F35A67
:1001000000A0724E18090010A5D4E80000E8764857
:10011000170000E40B54020000CA9A3B000000E103
:10012000F505000080969800000040420F00000096
:10013000A08601000000102700000000E803000076
:1001400000006400000000000A0000000000010040
:10015000000000002C76D888DC674F0823DFC1DF61
:10016000AE59E1B1B796E5E3E453C63AE651997664
:1001700096E8E6C28426EB898C9B62ED407C6FFC9E
:10018000EFBC9C9F40F2BAA56FA5F490055A2AF7E0
:100190005C936B6CF9676DC11BFCE0E40D47FEF5E9
:1001A00020E6B500D0ED902E030094357705008051
:1001B000841E080000204E0A000000C80C333333B0
:1001C000330F986E12831141EF8D2114893BE65550
:1001D00016CFFEE6DB18D1844B381BF77C1D901D33
:1001E000A4BBE424203284725E228100C9F124EC95
:1001F000A1E53D2711241FBECFEFD4E0DEBFCDBF68
:1002000011E0AEE0B1E001C01D92A632B107E1F706
:1002100011E0A0E0B1E0E2E1F8E202C005900D9249
:10022000AE30B107D9F70E94DD080C9407140C9486
:100230000000A1E1B0E0EFE1F1E00C94BD133C015E
:100240007F876E876A01FC0117821682838181FD98
:1002500003C06FEF7FEF71C39E012F5F3F4F398B5C
:10026000288BF3012381EE85FF8523FD859123FFF4
:100270008191FF87EE87882309F45CC3853251F4AE
:10028000EE85FF8523FD859123FF8191FF87EE8712
:10029000853229F490E0B3010E94C610E2CF982F76
:1002A00010E0882499241032B0F49B3269F09C321B
:1002B00028F4903251F0933271F40BC09D3239F032
:1002C000903349F4116028C01260146025C0186092
:1002D00023C0106121C017FD2AC0892F80538A30A6
:1002E00078F416FF06C0FAE09F9E902C1124980E19
:1002F00013C03AE0839E802C1124880E10620CC03B
:100300009E3221F416FD16C3106406C09C3611F40B
:10031000106802C0983659F4EE85FF8523FD95914B
:1003200023FF9191FF87EE87992309F0BCCF892F96
:100330008554833020F4812F8061905E07C0892F1F
:100340008556833008F0A1C1812F8F7E86FD02C0C3
:1003500076E0972E6FE3F62EF822953619F4F0E446
:10036000FF2A07C0963619F420E8F22A02C091103D
:100370009A94F7FE0BC03BE3391520F427E05CE3C9
:10038000B52E0EC0B92CB39427E00AC047E049153A
:1003900028F427E0BB2447E0942E02C0292DBB247B
:1003A000C60104969D878C87F601608171818281E8
:1003B0009381AE014F5F5F4F0B2D0E94220F6C01A6
:1003C0000981202E332400FF04C003FD02C01DE27A
:1003D00009C0F1FE02C01BE205C0F2FC02C010E041
:1003E00001C010E2C1018C709070892BB9F111230A
:1003F00011F483E001C084E0881510F088240AC05D
:10040000881AF3FC07C080E290E0B3010E94C61096
:100410008A94C9F7112329F0812F90E0B3010E943B
:10042000C61023FE03C008E610E00EC00CE610E084
:100430000BC0E114F10409F0805290E0B3010E9476
:10044000C6100F5F1F4F05C0EF2CFF24F0E1EF2215
:10045000FF24F8018491882361F714C1F7FE12C0CC
:10046000BC0C24FE04C08A81813309F4BA941B14A5
:100470001CF0BB24B3942DC0F8E0FB1550F538E018
:10048000B32E27C0F6FC25C0892D90E08C159D0564
:100490004CF02CEFC2162FEFD20624F030E8F32AEE
:1004A00001C09A94992049F0E2E0F0E0EC0FFD1FC2
:1004B000E90DF11D80818033A1F3F7FE0AC0B92C4C
:1004C000B394892D90E0C816D90614F0992401C080
:1004D0009C18F7FC03C025E030E009C01C141D0483
:1004E0001CF021E030E003C096012F5F3F4F112345
:1004F00011F02F5F3F4F992029F0892D90E0019650
:10050000280F391F882D90E02817390714F0882408
:1005100001C0821A4F2C5524C20189709070892B1A
:1005200039F008C080E290E0B3010E94C6108A94BE
:100530008820C1F7112329F0812F90E0B3010E9498
:10054000C61043FE07C008C080E390E0B3010E94DC
:10055000C6108A948820C1F7F7FE46C08601D7FEF0
:1005600002C000E010E076010894E11CF11CE01AE2
:10057000F10A41E050E04C0F5D1FE40EF51E26012C
:100580004B185108892D90E0AA24BB24A81AB90A57
:100590005FEF0F3F150729F48EE290E0B3010E9450
:1005A000C610C016D10634F0401651061CF4F701EF
:1005B000808101C080E3015010400894E11CF11CCF
:1005C0000A151B052CF090E0B3010E94C610E0CF85
:1005D0000C151D0539F49A81963318F4953311F4EE
:1005E00024FE81E390E04BC08A81813309F00F7EC5
:1005F00090E0B3010E94C6109920A1F08EE290E035
:10060000B3010E94C61012E0E1E0F0E0EC0FFD1F24
:10061000E10FF11D1F5F808190E0B3010E94C610C1
:100620009A9491F744FC03C085E690E002C085E40B
:1006300090E0B3010E94C610D7FC05C0C114D104DC
:1006400041F404FF06C0D094C194D108D3948DE244
:1006500001C08BE290E0B3010E94C61080E305C0A8
:100660008F5F26EF3FEFC20ED31E3AE0C316D104D0
:10067000BCF790E0B3010E94C610C601C096B3015A
:100680000E94C610CC84DD8452C1933631F093377A
:1006900099F0933509F059C023C0F6018081898310
:1006A0005E010894A11CB11C22E030E0C20ED31EF2
:1006B00021E0E22EF12C12C0F601A080B18016FDDF
:1006C00003C06FEF7FEF02C0692D70E022E030E0E1
:1006D000C20ED31EC5010E9410107C011F7713C0EB
:1006E000F601A080B18016FD03C06FEF7FEF02C05E
:1006F000692D70E022E030E0C20ED31EC5010E94D9
:1007000005107C01106813FF07C01BC080E290E059
:10071000B3010E94C6108A94882D90E0E816F9066D
:10072000A8F30FC0F50117FD859117FF81915F01B7
:1007300090E0B3010E94C61081108A940894E108E9
:10074000F108E114F10471F7F2C0943611F0993612
:1007500089F517FF08C0F60120813181428153815C
:1007600084E090E00AC0F601808191819C014427D9
:1007700037FD4095542F82E090E0C80ED91E9FE6C9
:10078000F92EF12257FF09C05095409530952195DB
:100790003F4F4F4F5F4F90E8F92ACA01B901AE01B0
:1007A0004F5F5F4F2AE030E00E943211E82EE88967
:1007B000EE1A41C0953721F41F7E2AE030E01CC0BC
:1007C000197F9F3661F0903720F4983509F0B2C058
:1007D0000FC0903739F0983709F0ACC004C028E05A
:1007E00030E00AC0106114FD146020E130E004C064
:1007F00014FD166020E132E017FF08C0F6016081A9
:1008000071818281938144E050E008C0F6018081CB
:100810009181BC0180E090E042E050E0C40ED51E22
:10082000AE014F5F5F4F0E943211E82E5889E51AE2
:100830008FE7F82EF122F6FE0BC08EEFF822E914B6
:1008400038F4F4FE07C0F2FC05C09FEEF92202C0A6
:100850001E2D01C0192DF4FE0DC0FE01EE0DF11D7F
:100860008081803319F4E9EEFE2208C01F5FF2FE9A
:1008700005C003C08F2D867809F01F5F0F2DF3FC94
:1008800014C0F0FE0FC0181510F09E2C0BC09E2C4B
:10089000980C911A182D06C080E290E0B3010E94D6
:1008A000C6101F5F1815C0F304C0181510F4811A84
:1008B00001C0882404FF0FC080E390E0B3010E94D0
:1008C000C61002FF1DC001FD03C088E790E00EC006
:1008D00088E590E00BC0802F867891F001FF02C080
:1008E0008BE201C080E2F7FC8DE290E0B3010E9450
:1008F000C61006C080E390E0B3010E94C6109A942F
:10090000E914C0F3EA94E1E0F0E0EC0FFD1FEE0D16
:10091000F11D808190E0B3010E94C610EE2091F796
:1009200006C080E290E0B3010E94C6108A9488203D
:10093000C1F797CCF30166817781CB016196E2E143
:100940000C94D913FC0120FD08C023FD05C022FF33
:1009500002C073836283518340830895EF92FF92B4
:100960000F931F9344FF02C033E011C046FF02C043
:1009700034E00DC0DB01FC01AA0FBB1FEE1FFF1FFF
:100980001094D1F76A0F7B1F8E1F9F1F31E0660FF7
:10099000771F881F991F3150D1F77B018C01E20E20
:1009A000F11C011D111DA8019701B701CA011F917A
:1009B0000F91FF90EF9008950F931F93CF93DF93C4
:1009C0008C01C8010E946710EC0197FD08C00E94CD
:1009D000F413892BB1F7CE01B8010E941811CE0192
:1009E000DF91CF911F910F9108958F929F92AF92B7
:1009F000BF92DF92EF92FF920F931F93CF93DF93FB
:100A00005C01EB014A01122F0E946710AC018B328E
:100A100019F08D3251F41068219709F46DC0C501A9
:100A20000E946710AC0197FD67C06DEFD62ED122F2
:100A30008D2D807301F54033F1F4219709F447C0FF
:100A4000C5010E946710AC0197FD41C082E0D82A21
:100A5000483711F0483559F480E4D82A2197B9F184
:100A6000C5010E946710AC0199232CF430C0D6FC5C
:100A700002C080E1D82AEE24FF248701242F2053CE
:100A8000283088F0D4FC09C02A3068F0D6FE05C0B2
:100A90002F7D822F8151863028F0CA01B5010E9436
:100AA000181112C02750C801B7014D2D0E94AE0485
:100AB0007B018C0182E0D82A219761F0C5010E9458
:100AC0006710AC0197FFDACFD1FC04C015C0EE244B
:100AD000FF248701D7FE08C010950095F094E0949C
:100AE000E11CF11C011D111DC401B801A7012D2D30
:100AF0000E94A20481E001C080E0DF91CF911F91AC
:100B00000F91FF90EF90DF90BF90AF909F908F90EC
:100B10000895A0E2B0E0EFE8F5E00C94C1135C01A9
:100B20006B018A017901FE01319680E2DF011D929D
:100B30008A95E9F770E030E060E040E050E03F0186
:100B4000A1E0B0E0F5018381F70183FD259183FFEA
:100B500021917F01222309F481C02E3519F441151A
:100B6000510569F1872F90E08417950744F42D35DE
:100B700051F12D3221F4332329F431E021C0332304
:100B800009F4622F322F832F869586958695F3017F
:100B9000E80FF11D832F87704D0102C0880C991C4E
:100BA0008A95E2F7208128292083361711F430E056
:100BB00007C0361710F43F5FE6CF3150E4CF71E045
:100BC0004F5F5F4FBFCF332319F08E8180628E83DA
:100BD000772359F0FE0131969E012F5D3F4F8081B2
:100BE00080958193E217F307D1F7992493943E01FE
:100BF0000894611C711CC5010E946710AC0197FD2F
:100C000025C0869586958695F301E80FF11D8081B4
:100C100090E09A012770307002C0959587952A95CB
:100C2000E2F780FD05C0CA01B5010E9418110EC08F
:100C30000115110519F0D8014D938D010894C108D3
:100C4000D1089924C114D104B1F602C0992031F41D
:100C50000115110529F0F801108202C0EE24FF24CD
:100C6000C701A096EEE00C94DD132F923F925F92A5
:100C70006F927F928F929F92AF92BF92CF92DF92AC
:100C8000EF92FF920F931F93CF93DF933C017B0171
:100C90001A010E946710EC018B3239F08D3211F08D
:100CA000552411C0B0E85B2E01C055240894E1081A
:100CB000F108E114F10409F418C1C3010E9467109E
:100CC000EC0197FD12C1CE010E94FC1389369105FB
:100CD00021F08E36910599F51DC005E810E01CC085
:100CE0000894E108F108E114F10471F0C3010E94D5
:100CF0006710EC0197FD08C00E94FC13D81661F044
:100D0000CE01B3010E94181120E00838120709F043
:100D1000ECC008C002E810E0F8010F5F1F4FD4904C
:100D2000DD20F1F60558104029F080E090E0A0E8C1
:100D3000BFE7CFC080E090E0A0ECBFE7CAC0CC2402
:100D4000DD24882499245401AE014053242F4A30D5
:100D500038F552E0552A852D90E0AC01487050706E
:100D600052FE06C0452B11F50894C11CD11C1EC0B3
:100D7000452B19F00894C108D108C501B40140E21F
:100D80000E94AE044B015C0188E9881689E9980647
:100D900089E9A80689E1B80648F094E0592A06C016
:100DA0004E3F81F453FC0EC0E8E05E2A0894E1084F
:100DB000F108E114F10431F0C3010E946710EC0165
:100DC00097FFC2CF51FE91C0C53619F0C53409F066
:100DD00046C00894E108F108E114F10409F485C063
:100DE000C3010E946710EC0197FD7FC08B3221F098
:100DF0008D3269F4F0E15F2A0894E108F108E1140A
:100E0000F10409F472C0C3010E946710EC01CE0125
:100E1000C0970A9708F069C000E010E0B801882781
:100E200077FD8095982FAE014053242F40E20E9419
:100E3000AE048B010894E108F108E114F10439F0E3
:100E4000C3010E946710EC01C0970A9738F3B801FC
:100E500054FE03C0709561957F4FC60ED71EEF28D4
:100E600031F0D7FD04C0CE01B3010E941811C501B5
:100E7000B4010E94B812D7FE0DC0A1EAEA2EA0E08C
:100E8000FA2ED094C194D108D394C0E2D0E000E00F
:100E900010E00EC0F9EBEF2EF0E0FF2EF6CFF701D9
:100EA00025913591459154910E94F512CC1ADD0A95
:100EB000CC16DD06A0F7D695C7950F5F1F4F0630FD
:100EC000110529F0ECEFFFEFEE0EFF1EF1CFDC0174
:100ED000CB0157FCB0582114310429F0F101808373
:100EE0009183A283B38381E001C080E0DF91CF9141
:100EF0001F910F91FF90EF90DF90CF90BF90AF9038
:100F00009F908F907F906F905F903F902F9008956B
:100F1000A0E0B0E0EEE8F7E00C94C0134C015B01F8
:100F20003A01FC0117821682552404C1812F90E0FA
:100F30000E94F413892B21F0C4010E94DC04FAC042
:100F4000153249F4F501F3FC6591F3FE61915F01FF
:100F5000653269F415E2C4010E94671097FDF6C07E
:100F6000181709F4E7C0B4010E941811F4C06A32DE
:100F700019F0162F00E006C0F3FC1591F3FE119155
:100F80005F0101E0CC24DD240EC00260B60180E0E8
:100F900090E040E20E94AE046B01F501F3FC159174
:100FA000F3FE11915F01212F20532A3070F301FDD0
:100FB00004C0CC24CA94DC2C04C0C114D10409F4AC
:100FC000CAC0183621F01C3699F4F5010BC0F501A2
:100FD000F3FC6591F3FE6191683619F05F01162FFD
:100FE00007C008600460F3FC1591F3FE11915F01E6
:100FF000112309F4B0C080E790E0612F70E00E94F7
:10100000FA0F892B09F4A7C0802F00FF03C0EE243C
:10101000FF2407C0F301E080F18022E030E0620E9F
:10102000731E1E3651F4F4014681578160E070E072
:10103000C701202F0E94A2047DC01336B9F481FDA0
:1010400003C081E0C82ED12CC4010E94671097FD17
:101050007DC0E114F10419F0F70181937F01089438
:10106000C108D108C114D10479F762C01B3559F405
:10107000C401B601A70195010E9489055C01009792
:1010800009F056C050C0C4010E94DC0497FD5EC048
:101090001F36D1F1103738F41436A1F11936A9F101
:1010A0001835D1F52DC0133751F0143718F4103717
:1010B00099F526C0153731F1183771F521C0C401F3
:1010C0000E946710EC0197FD15C00E94F413892B54
:1010D00029F0CE01B4010E9418110CC0E114F104F2
:1010E00019F0F701C1937F010894C108D108C11418
:1010F000D10429F7E114F104D9F0F701108218C0E6
:10110000006403C0006201C00061C401B601A70110
:10111000202F0E94F50405C0C401B601A7010E945A
:101120003506882329F4F4018381807379F413C090
:1011300000FF5394F401F380F501F3FC1591F3FEE5
:1011400011915F01112309F0F1CE05C0552019F46A
:101150002FEF3FEF02C0252D30E0C901CDB7DEB73C
:10116000EFE00C94DC1310927C00EAE7F0E087E8F3
:101170008083808180648083089580917A0086FDD9
:10118000FCCF409178009091790080917A00806442
:1011900080937A00392F20E0240F311DC901089572
:1011A000A0E0B0E0BC01CD010E94B81220E030E028
:1011B0004AEF5EE30E94F51208953F924F925F92CC
:1011C0006F927F928F929F92AF92BF92CF92DF9257
:1011D000EF92FF920F931F93DF93CF93CDB7DEB7BC
:1011E0006C970FB6F894DEBF0FBECDBF0E940C0BFC
:1011F0002EE0F22E8E010F5F1F4FD801EF2D1D92B2
:10120000EA95E9F782E08C8387E49AE09A878987F8
:101210000E94F30A10927C0087E880937A00809104
:101220007A00806480937A000E946D0BFE013F96E5
:10123000DF011D92FA94E9F783E08A8B88E59BE051
:10124000988F8F8B82E69BE09A8F898FF0931F0196
:10125000E0931E01F0931D01E0931C01302EA12E9E
:1012600096ED492E90E0592E8DEB682E80E0782E79
:101270000F2EF0E0EF2EF0E0FF2EF0E00F2FF0E069
:101280001F2FF02DBB2480917A0086FDFCCF90911A
:10129000780080917900D82ECC244601890E911CCB
:1012A00080917A00806480937A00B40180E090E0BD
:1012B0000E94B81220E030E04AEF5EE30E94F5128F
:1012C00020E030E048EC52E40E94290D9B01AC0183
:1012D000C801B7010E94FC0C7B018C01B394B4E6F9
:1012E000BB1689F60E94F30A84EF90E00E944C0A34
:1012F000C4010E94AE0A88EE90E00E944C0A0E944F
:10130000390AEDB7FEB738970FB6F894FEBF0FBE97
:10131000EDBF3196ADB7BEB711963C9211971296BC
:10132000AC9253824282E482F582068317830E9444
:10133000A910EDB7FEB738960FB6F894FEBF0FBEF2
:10134000EDBF8FED0E94430A8EEC90E00E944C0AA4
:1013500000D000D000D0ADB7BEB712967C926E928E
:101360001197EDB7FEB7E382F482058316830E94DE
:10137000F2108DB79EB706960FB6F8949EBF0FBEBB
:101380008DBF76CF20E030E00BC0000000000000F1
:101390000000000000000000000000002F5F3F4F31
:1013A0002817390790F3089540E050E013C020E07B
:1013B00030E000000000000000000000000000001D
:1013C000000000002F5F3F4F63E0283E360789F79B
:1013D0004F5F5F4F4817590750F308955F9A08957C
:1013E0005F9808959BB1937C9BB92BB1992787FD9A
:1013F00090958F709070880F991F880F991F282BD8
:101400002BB95E9A81E090E00E94C2095E9881E06B
:1014100090E00E94C20908951F93182F82958F7043
:101420000E94F209812F8F700E94F20980E590E0FE
:101430000E94C2091F9108955F98823041F0833065
:1014400041F0813011F480E405C080E003C084E104
:1014500001C084E5860F80680E940C0A089583E02D
:1014600060E00E941C0A089582E060E00E941C0A6D
:10147000089581E060E00E941C0A089580E060E029
:101480000E941C0A08955F9A0E940C0A08950E9407
:10149000430A80E090E00895CF93DF93EC0105C00C
:1014A0002196F90184910E94430A9E01FE018491D4
:1014B0008823B1F7DF91CF910895CF92DF92EF9219
:1014C000FF920F931F93CF93DF93EC0197FF06C01A
:1014D0008DE20E94430AD095C195DF4F40E000E1C4
:1014E00017E2EE24FF24DC2ECD2ECE01B8010E949F
:1014F000A913CB016115710529F4442319F40130B6
:10150000110551F4805D0E94430A8D2D9C2DB80178
:101510000E94A913EC0141E00436110549F444236B
:1015200019F480E30E94430A8EE20E94430A41E0DC
:10153000C8016AE070E00E94A9138B010894E11CC5
:10154000F11C85E0E816F10471F6DF91CF911F914F
:101550000F91FF90EF90DF90CF900895CF92DF92A0
:10156000EF92FF920F931F93CF93DF93EC0197FFBE
:1015700006C08DE20E94430AD095C195DF4F40E03E
:1015800000E117E2EE24FF24DC2ECD2ECE01B801BF
:101590000E94A913CB016115710529F4442319F4A4
:1015A0000130110551F4805D0E94430A8D2D9C2D60
:1015B000B8010E94A913EC0141E0C8016AE070E0A3
:1015C0000E94A9138B010894E11CF11C85E0E81628
:1015D000F104D1F6DF91CF911F910F91FF90EF9021
:1015E000DF90CF9008955F9882E00E940C0A82E31A
:1015F00090E00E94D40908955F9881E00E940C0A4F
:1016000082E390E00E94D40982E00E940C0A82E307
:1016100090E00E94D40908958AB18C6F8AB984E65B
:1016200090E00E94D4095F9883E00E94F20986E06E
:1016300090E00E94D40983E00E94F2098AEF90E0D2
:101640000E94C20983E00E94F2098AEF90E00E94A2
:10165000C20982E00E94F20988E20E940C0A8CE032
:101660000E940C0A81E00E940C0A85E090E00E9432
:10167000D4098CE00E940C0A86E00E940C0A84E1E6
:101680000E940C0A0E94FC0A0895982F8091C000C5
:1016900085FFFCCF9093C60008958091C0008078AC
:1016A00008958091C00087FFFCCF8091C600089507
:1016B000982F8091C00085FFFCCF9093C60080E0FA
:1016C00090E008958091C00087FFFCCF2091C60074
:1016D000332727FD3095C90108951092C50087E092
:1016E0008093C40088E18093C10086E08093C200AB
:1016F00088E59BE062E67BE00E941B100895A0E075
:10170000B0E0E5E8FBE00C94BD13DC012B01FA012D
:101710009C91923008F439C1EB018881823008F441
:1017200033C1943069F4843009F02FC111969C9133
:1017300011978981981709F428C1A0E0B1E025C16B
:10174000843009F421C18230A9F4923009F01DC11E
:101750009A01AD0188E0EA010990AE01E901099220
:101760009E018150C1F7E201898111969C918923E4
:10177000818308C1923009F407C112962D903C90E4
:101780001397EB018A819B811496AD90BD90CD900B
:10179000DC901797EC80FD800E811F819101281B42
:1017A000390BB90137FF04C066277727621B730B1B
:1017B000603271050CF061C0121613066CF537012A
:1017C0004801062E04C096948794779467940A94EF
:1017D000D2F721E030E040E050E004C0220F331F98
:1017E000441F551F6A95D2F7215030404040504069
:1017F0002E213F214023512321153105410551055B
:1018000021F021E030E040E050E079018A01E62853
:10181000F728082919293CC0232BD1F1260E371EA1
:1018200035014601062E04C09694879477946794F8
:101830000A94D2F721E030E040E050E004C0220FEB
:10184000331F441F551F6A95D2F721503040404046
:1018500050402A213B214C215D21211531054105B4
:10186000510521F021E030E040E050E059016A01EB
:10187000A628B728C828D9280BC0821593052CF0B4
:101880001C01AA24BB24650103C0EE24FF248701A8
:1018900011969C91D20111968C91981709F445C02C
:1018A000992339F0A80197012A193B094C095D09D0
:1018B00006C0A60195012E193F09400B510B57FD9B
:1018C00008C0118233822282248335834683578362
:1018D0001DC081E081833382228288279927DC0121
:1018E000821B930BA40BB50B84839583A683B783CC
:1018F0000DC0220F331F441F551F24833583468399
:1019000057838281938101979383828324813581D8
:1019100046815781DA01C9010197A109B1098F5F99
:101920009F4FAF4FBF4328F30BC091833382228276
:10193000EA0CFB1C0C1D1D1DE482F5820683178337
:1019400083E08083248135814681578157FF1AC007
:10195000C901AA2797FDA095BA2F81709070A07039
:10196000B0705695479537952795822B932BA42BCE
:10197000B52B84839583A683B78382819381019657
:1019800093838283DF0101C0D201CD01CDB7DEB7E1
:10199000E2E10C94D913A0E2B0E0E1EDFCE00C949C
:1019A000C91369837A838B839C832D833E834F8302
:1019B0005887E9E0EE2EF12CEC0EFD1ECE010196CB
:1019C000B7010E94AA0E8E010F5E1F4FCE01059631
:1019D000B8010E94AA0E8A8991E089278A8BC701E3
:1019E000B801AE01475E5F4F0E947F0B0E94D50D8C
:1019F000A096E6E00C94E513A0E2B0E0E2E0FDE0A2
:101A00000C94C91369837A838B839C832D833E83D3
:101A10004F835887F9E0EF2EF12CEC0EFD1ECE011E
:101A20000196B7010E94AA0E8E010F5E1F4FCE01D4
:101A30000596B8010E94AA0EC701B801AE01475E23
:101A40005F4F0E947F0B0E94D50DA096E6E00C949C
:101A5000E513A8E1B0E0EFE2FDE00C94C513698363
:101A60007A838B839C832D833E834F835887B9E091
:101A7000EB2EF12CEC0EFD1ECE010196B7010E945B
:101A8000AA0E8E010F5E1F4FCE010596B8010E946F
:101A9000AA0E2985223008F47EC03989323010F42C
:101AA000B8017CC08A859A8989278A87243011F0F9
:101AB000223031F4231709F06EC060E071E06EC08F
:101AC000343039F41D861E861F86188A1C861B86B4
:101AD00004C0323021F484E08987B7015FC02B85D0
:101AE0003C858B899C89281B390B3C872B87ED848F
:101AF000FE840F851889AD88BE88CF88D88CEA14FB
:101B0000FB040C051D0540F4EE0CFF1C001F111F0B
:101B1000215030403C872B8720E030E040E050E00F
:101B200080E090E0A0E0B0E460E070E0EA14FB0444
:101B30000C051D0540F0282B392B4A2B5B2BEA188E
:101B4000FB080C091D09B695A79597958795EE0C8E
:101B5000FF1C001F111F6F5F7F4F6F31710531F741
:101B6000DA01C9018F779070A070B0708034910550
:101B7000A105B10561F427FD0AC0E114F1040105D6
:101B8000110529F0205C3F4F4F4F5F4F20782D8784
:101B90003E874F87588BBE01675F7F4FCB010E9406
:101BA000D50D6896EAE00C94E113DF92EF92FF9274
:101BB0000F931F93FC01E480F58006811781D1808B
:101BC0008081823048F480E090E0A0E1B0E0E82A33
:101BD000F92A0A2B1B2BA5C0843009F49FC0823040
:101BE00021F4EE24FF24870105C0E114F10401056E
:101BF000110519F4E0E0F0E096C0628173819FEF77
:101C0000623879070CF05BC022E83FEF261B370BE8
:101C10002A3131052CF020E030E040E050E02AC0CD
:101C2000B801A701022E04C0769567955795479590
:101C30000A94D2F781E090E0A0E0B0E004C0880F01
:101C4000991FAA1FBB1F2A95D2F70197A109B109B5
:101C50008E219F21A023B1230097A105B10521F07A
:101C600081E090E0A0E0B0E09A01AB01282B392B95
:101C70004A2B5B2BDA01C9018F779070A070B0708E
:101C800080349105A105B10539F427FF09C0205C16
:101C90003F4F4F4F5F4F04C0215C3F4F4F4F5F4F4F
:101CA000E0E0F0E02030A0E03A07A0E04A07A0E43E
:101CB0005A0710F0E1E0F0E079018A0127C06038AE
:101CC000710564F5FB01E158FF4FD801C7018F771B
:101CD0009070A070B07080349105A105B10539F401
:101CE000E7FE0DC080E490E0A0E0B0E004C08FE328
:101CF00090E0A0E0B0E0E80EF91E0A1F1B1F17FFDE
:101D000005C016950795F794E794319687E01695E8
:101D10000795F794E7948A95D1F705C0EE24FF2440
:101D20008701EFEFF0E06E2F679566276795902F9C
:101D30009F77D794DD24D7948E2F8695492F462BF5
:101D4000582F5D29B701CA011F910F91FF90EF90A5
:101D5000DF900895FC01DB01408151812281622FD7
:101D60006F7770E0221F2227221F9381892F880F0F
:101D7000822B282F30E0991F9927991F11969C9349
:101D8000119721153105A9F5411551056105710519
:101D900011F482E037C082E89FEF13969C938E93F4
:101DA00012979A01AB0167E0220F331F441F551FA2
:101DB0006A95D1F783E08C930DC0220F331F441F27
:101DC000551F12968D919C911397019713969C9392
:101DD0008E931297203080E0380780E0480780E437
:101DE000580758F314962D933D934D935C93179792
:101DF00008952F3F310579F44115510561057105AD
:101E000019F484E08C93089564FF03C081E08C93FF
:101E100012C01C9210C02F57304013963C932E9343
:101E2000129783E08C9387E0440F551F661F771F3E
:101E30008A95D1F7706414964D935D936D937C935E
:101E400017970895283008F027E03327DA01990F13
:101E5000311D87FD916000966105710539F432608E
:101E60002E5F3D9330E32A95E1F708959F3F30F0D0
:101E700080387105610509F03C5F3C5F3D9391300E
:101E800008F08068911DDF93CF931F930F93FF920B
:101E9000EF92192F987F9695E92F96959695E90FD1
:101EA000FF27EC5AFE4F99273327EE24FF24A70182
:101EB000E70105900894079428F4360FE71EF81EF2
:101EC000491F511D660F771F881F991F0694A1F7A0
:101ED0000590079428F4E70EF81E491F561FC11DF0
:101EE000770F881F991F661F0694A1F70590079426
:101EF00028F4F80E491F561FC71FD11D880F991FC0
:101F0000661F771F0694A1F70590079420F4490FE8
:101F1000561FC71FD81F990F661F771F881F06946B
:101F2000A9F784911095177041F0D695C7955795EC
:101F30004795F794E7941A95C1F7EAEFF0E06894B3
:101F40001590159135916591959105907FE2739566
:101F5000E118F10A430B560BC90BD009C0F7E10C8D
:101F6000F11E431F561FC91FD01D7EF4703311F49C
:101F70008A95E6CFE894015030F0080F0AF4002764
:101F8000021708F4202F2395022F7A3328F079E3E3
:101F90007D932A95E9F710C07D932A9589F60694DA
:101FA00097956795379517951794E118F10A430BA4
:101FB000560BC90BD00998F023957E9173957A330F
:101FC00008F070E37C932013B8F77E9170617D93E5
:101FD00030F0839571E37D9370E32A95E1F7112446
:101FE000EF90FF900F911F91CF91DF91992787FD7F
:101FF00090950895FC010590061621F00020D9F770
:10200000C00108953197CF010895FC0105906150FA
:1020100070400110D8F7809590958E0F9F1F0895FE
:10202000FC016150704001900110D8F780959095A7
:102030008E0F9F1F08950F931F93CF93DF938C01F3
:10204000EB01009731F46115710519F420E030E0DF
:1020500038C081E090E06EE070E00E949011FC01D9
:102060009C01009771F180E88383209771F0D387FA
:10207000C28781E8838380911C0190911D01892B87
:1020800021F4F0931D01E0931C0101151105C9F025
:102090001187008783818260838380911E019091E4
:1020A0001F01892B71F4F0931F01E0931E018091B1
:1020B000200190912101892B21F4F0932101E093DB
:1020C0002001C901DF91CF911F910F910895CF9306
:1020D000DF93EC014B8140FF1AC046FF0AC04F7BE3
:1020E0004B838E819F8101969F838E838A81282FC7
:1020F0002BC042FF13C0E881F9818081282F33274C
:1021000027FD30952115310529F440624B832FEFCF
:102110003FEF1BC03196F983E88311C0EA85FB8548
:10212000CE0109959C0197FF0AC09B812F5F3F4F0D
:1021300011F080E201C080E1892B8B83E8CF8E8192
:102140009F8101969F838E8330E0C901DF91CF91FB
:102150000895A0E0B0E0EFEAF0E10C94CB130F811A
:1021600018859E01255F3F4FF80183818860838336
:10217000C80169857A85A9010E941901F8012381A6
:10218000277F23832096E4E00C94E7130F931F939B
:10219000CF93DF938C01EB018B8181FF1BC082FF0A
:1021A0000DC02E813F818C819D812817390764F4F1
:1021B000E881F9810193F983E88306C0E885F98510
:1021C000802F0995892B31F48E819F8101969F8301
:1021D0008E8302C00FEF1FEFC801DF91CF911F91D7
:1021E0000F910895A0E0B0E0E8EFF0E10C94CD137A
:1021F000FE01359661917191A0911E01B0911F0170
:1022000013968C911397886013968C9380911E017E
:1022100090911F01AF010E941901E0911E01F09100
:102220001F012381277F23832096E2E00C94E9138A
:102230009C01FB01838180FF11C086FD0FC09FEFD1
:102240002F3F390759F0228380648F7D83838681F5
:10225000978101979783868330E002C02FEF3FEF8D
:10226000C9010895FA01AA27283051F1203181F1DE
:10227000E8946F936E7F6E5F7F4F8F4F9F4FAF4F8E
:10228000B1E03ED0B4E03CD0670F781F891F9A1FA1
:10229000A11D680F791F8A1F911DA11D6A0F711D55
:1022A000811D911DA11D20D009F468943F912AE061
:1022B000269F11243019305D3193DEF6CF01089549
:1022C000462F4770405D4193B3E00FD0C9F7F6CF7A
:1022D000462F4F70405D4A3318F0495D31FD405242
:1022E000419302D0A9F7EACFB4E0A69597958795D8
:1022F00077956795BA95C9F70097610571050895B7
:102300009B01AC010A2E0694579547953795279562
:10231000BA95C9F7620F731F841F951FA01D0895FA
:102320000F931F93CF93DF93689F8001699F100DD8
:10233000789F100D1124C8010E94AC11EC01009788
:1023400029F060E070E0A8010E94B112CE01DF9197
:10235000CF911F910F910895CF93DF93BC018230ED
:10236000910510F462E070E0A0912401B091250184
:10237000ED01E0E0F0E040E050E021C0888199818B
:102380008617970769F48A819B81309719F09383A8
:10239000828304C09093250180932401FE0134C000
:1023A0006817790738F44115510519F08417950716
:1023B00008F4AC01FE018A819B819C01E901209710
:1023C000E9F641155105A9F1CA01861B970B04973F
:1023D00008F4BA01E0E0F0E02AC08D919C911197D9
:1023E00084179507F9F46417750781F412968D9197
:1023F0009C911397309719F09383828304C0909334
:10240000250180932401FD0132964FC0CA01861B2D
:10241000970BFD01E80FF91F6193719302978D935C
:102420009C9343C0FD01828193819C01D901109747
:10243000A1F68091220190912301892B41F4809192
:102440000A0190910B019093230180932201409106
:102450000C0150910D014115510541F44DB75EB786
:102460008091080190910901481B590B209122018C
:102470003091230124173507B0F4CA01821B930B56
:102480008617970780F0AB014E5F5F4F8417950763
:1024900050F0420F531F5093230140932201F90142
:1024A0006193719302C0E0E0F0E0CF01DF91CF9142
:1024B0000895CF93DF93009709F450C0EC01229761
:1024C0001B821A82A0912401B0912501109709F175
:1024D00040E050E0AC17BD0708F1BB83AA83FE01C2
:1024E00021913191E20FF31FAE17BF0779F48D915F
:1024F0009C911197280F391F2E5F3F4F39832883F6
:1025000012968D919C9113979B838A834115510557
:1025100071F4D0932501C093240120C012968D91AF
:102520009C911397AD01009711F0DC01D3CFFA0114
:10253000D383C28321913191E20FF31FCE17DF07BE
:1025400069F488819981280F391F2E5F3F4FFA0166
:10255000318320838A819B8193838283DF91CF9112
:102560000895DC0101C06D9341505040E0F708959B
:10257000E89409C097FB3EF490958095709561951D
:102580007F4F8F4F9F4F9923A9F0F92F96E9BB27D3
:102590009395F695879577956795B795F111F8CF4F
:1025A000FAF4BB0F11F460FF1BC06F5F7F4F8F4FBA
:1025B0009F4F16C0882311F096E911C0772321F0B0
:1025C0009EE8872F762F05C0662371F096E8862F48
:1025D00070E060E02AF09A95660F771F881FDAF79F
:1025E000880F9695879597F908950BD078C069D094
:1025F00028F06ED018F0952309F05AC05FC011245E
:10260000A2C07ED0A0F3959FD1F3950F50E0551F47
:10261000629FF001729FBB27F00DB11D639FAA2737
:10262000F00DB11DAA1F649F6627B00DA11D661F86
:10263000829F2227B00DA11D621F739FB00DA11DA7
:10264000621F839FA00D611D221F749F3327A00D61
:10265000611D231F849F600D211D822F762F6A2FFD
:1026600011249F5750408AF0E1F088234AF0EE0F82
:10267000FF1FBB1F661F771F881F91505040A9F78F
:102680009E3F510570F014C05EC05F3FECF3983E72
:10269000DCF3869577956795B795F795E7959F5FF6
:1026A000C1F7FE2B880F911D9695879597F9089590
:1026B00097F99F6780E870E060E008959FEF80ECF5
:1026C000089500240A941616170618060906089598
:1026D00000240A9412161306140605060895092EFE
:1026E0000394000C11F4882352F0BB0F40F4BF2B6D
:1026F00011F460FF04C06F5F7F4F8F4F9F4F0895AD
:1027000057FD9058440F551F59F05F3F71F04795A2
:10271000880F97FB991F61F09F3F79F08795089587
:10272000121613061406551FF2CF4695F1DF08C0A6
:10273000161617061806991FF1CF869571056105C3
:1027400008940895E894BB2766277727CB0197F96B
:102750000895AA1BBB1B51E107C0AA1FBB1FA617E8
:10276000B70710F0A61BB70B881F991F5A95A9F73A
:1027700080959095BC01CD0108952F923F924F9284
:102780005F926F927F928F929F92AF92BF92CF9201
:10279000DF92EF92FF920F931F93CF93DF93CDB70A
:1027A000DEB7CA1BDB0B0FB6F894DEBF0FBECDBF82
:1027B00009942A88398848885F846E847D848C8453
:1027C0009B84AA84B984C884DF80EE80FD800C815C
:1027D0001B81AA81B981CE0FD11D0FB6F894DEBF3F
:1027E0000FBECDBFED01089591110EC0803219F0DA
:1027F00089508550D0F708959111089581548A51D8
:1028000008F4805E855A0895992788270895F894DA
:02281000FFCFF8
:00000001FF
